{
  "_format": "hh-sol-artifact-1",
  "contractName": "Escrow",
  "sourceName": "contracts/Escrow.sol",
  "abi": [
    {
      "inputs": [
        {
          "internalType": "address[]",
          "name": "_tokens",
          "type": "address[]"
        }
      ],
      "stateMutability": "nonpayable",
      "type": "constructor"
    },
    {
      "anonymous": false,
      "inputs": [
        {
          "indexed": false,
          "internalType": "bytes16",
          "name": "orderId",
          "type": "bytes16"
        }
      ],
      "name": "CancelledOrder",
      "type": "event"
    },
    {
      "anonymous": false,
      "inputs": [
        {
          "indexed": false,
          "internalType": "bytes16",
          "name": "orderId",
          "type": "bytes16"
        }
      ],
      "name": "FulfilledOrder",
      "type": "event"
    },
    {
      "anonymous": false,
      "inputs": [
        {
          "indexed": true,
          "internalType": "address",
          "name": "previousOwner",
          "type": "address"
        },
        {
          "indexed": true,
          "internalType": "address",
          "name": "newOwner",
          "type": "address"
        }
      ],
      "name": "OwnershipTransferStarted",
      "type": "event"
    },
    {
      "anonymous": false,
      "inputs": [
        {
          "indexed": true,
          "internalType": "address",
          "name": "previousOwner",
          "type": "address"
        },
        {
          "indexed": true,
          "internalType": "address",
          "name": "newOwner",
          "type": "address"
        }
      ],
      "name": "OwnershipTransferred",
      "type": "event"
    },
    {
      "anonymous": false,
      "inputs": [
        {
          "indexed": false,
          "internalType": "bytes16",
          "name": "orderId",
          "type": "bytes16"
        }
      ],
      "name": "ReceivedOrder",
      "type": "event"
    },
    {
      "inputs": [],
      "name": "acceptOwnership",
      "outputs": [],
      "stateMutability": "nonpayable",
      "type": "function"
    },
    {
      "inputs": [
        {
          "internalType": "address[]",
          "name": "inputTokens",
          "type": "address[]"
        }
      ],
      "name": "addTokens",
      "outputs": [],
      "stateMutability": "nonpayable",
      "type": "function"
    },
    {
      "inputs": [
        {
          "components": [
            {
              "internalType": "bytes16",
              "name": "orderId",
              "type": "bytes16"
            },
            {
              "internalType": "address",
              "name": "creator",
              "type": "address"
            },
            {
              "internalType": "uint96",
              "name": "outTokenAmount",
              "type": "uint96"
            },
            {
              "internalType": "uint96",
              "name": "inTokenAmount",
              "type": "uint96"
            },
            {
              "internalType": "uint16",
              "name": "inTokenId",
              "type": "uint16"
            },
            {
              "internalType": "uint16",
              "name": "outTokenId",
              "type": "uint16"
            },
            {
              "internalType": "enum IQuote.OrderType",
              "name": "orderType",
              "type": "uint8"
            }
          ],
          "internalType": "struct IQuote.OrderQuote",
          "name": "quote",
          "type": "tuple"
        }
      ],
      "name": "cancelOrder",
      "outputs": [],
      "stateMutability": "nonpayable",
      "type": "function"
    },
    {
      "inputs": [
        {
          "components": [
            {
              "internalType": "bytes16",
              "name": "orderId",
              "type": "bytes16"
            },
            {
              "internalType": "address",
              "name": "creator",
              "type": "address"
            },
            {
              "internalType": "uint96",
              "name": "outTokenAmount",
              "type": "uint96"
            },
            {
              "internalType": "uint96",
              "name": "inTokenAmount",
              "type": "uint96"
            },
            {
              "internalType": "uint16",
              "name": "inTokenId",
              "type": "uint16"
            },
            {
              "internalType": "uint16",
              "name": "outTokenId",
              "type": "uint16"
            },
            {
              "internalType": "enum IQuote.OrderType",
              "name": "orderType",
              "type": "uint8"
            }
          ],
          "internalType": "struct IQuote.OrderQuote",
          "name": "quote",
          "type": "tuple"
        }
      ],
      "name": "getOrderStatus",
      "outputs": [
        {
          "internalType": "enum IQuote.OrderStatus",
          "name": "",
          "type": "uint8"
        }
      ],
      "stateMutability": "view",
      "type": "function"
    },
    {
      "inputs": [
        {
          "internalType": "uint256",
          "name": "index",
          "type": "uint256"
        }
      ],
      "name": "getTokenAddressByIndex",
      "outputs": [
        {
          "internalType": "address",
          "name": "",
          "type": "address"
        }
      ],
      "stateMutability": "view",
      "type": "function"
    },
    {
      "inputs": [
        {
          "internalType": "address",
          "name": "token",
          "type": "address"
        }
      ],
      "name": "getTokenIndex",
      "outputs": [
        {
          "internalType": "int256",
          "name": "",
          "type": "int256"
        }
      ],
      "stateMutability": "view",
      "type": "function"
    },
    {
      "inputs": [
        {
          "components": [
            {
              "internalType": "bytes16",
              "name": "orderId",
              "type": "bytes16"
            },
            {
              "internalType": "address",
              "name": "creator",
              "type": "address"
            },
            {
              "internalType": "uint96",
              "name": "outTokenAmount",
              "type": "uint96"
            },
            {
              "internalType": "uint96",
              "name": "inTokenAmount",
              "type": "uint96"
            },
            {
              "internalType": "uint16",
              "name": "inTokenId",
              "type": "uint16"
            },
            {
              "internalType": "uint16",
              "name": "outTokenId",
              "type": "uint16"
            },
            {
              "internalType": "enum IQuote.OrderType",
              "name": "orderType",
              "type": "uint8"
            }
          ],
          "internalType": "struct IQuote.OrderQuote",
          "name": "quote",
          "type": "tuple"
        }
      ],
      "name": "marketOrder",
      "outputs": [],
      "stateMutability": "nonpayable",
      "type": "function"
    },
    {
      "inputs": [],
      "name": "owner",
      "outputs": [
        {
          "internalType": "address",
          "name": "",
          "type": "address"
        }
      ],
      "stateMutability": "view",
      "type": "function"
    },
    {
      "inputs": [],
      "name": "pendingOwner",
      "outputs": [
        {
          "internalType": "address",
          "name": "",
          "type": "address"
        }
      ],
      "stateMutability": "view",
      "type": "function"
    },
    {
      "inputs": [],
      "name": "renounceOwnership",
      "outputs": [],
      "stateMutability": "nonpayable",
      "type": "function"
    },
    {
      "inputs": [
        {
          "components": [
            {
              "internalType": "bytes16",
              "name": "orderId",
              "type": "bytes16"
            },
            {
              "internalType": "address",
              "name": "creator",
              "type": "address"
            },
            {
              "internalType": "uint96",
              "name": "outTokenAmount",
              "type": "uint96"
            },
            {
              "internalType": "uint96",
              "name": "inTokenAmount",
              "type": "uint96"
            },
            {
              "internalType": "uint16",
              "name": "inTokenId",
              "type": "uint16"
            },
            {
              "internalType": "uint16",
              "name": "outTokenId",
              "type": "uint16"
            },
            {
              "internalType": "enum IQuote.OrderType",
              "name": "orderType",
              "type": "uint8"
            }
          ],
          "internalType": "struct IQuote.OrderQuote",
          "name": "quote",
          "type": "tuple"
        }
      ],
      "name": "serveOrder",
      "outputs": [],
      "stateMutability": "nonpayable",
      "type": "function"
    },
    {
      "inputs": [],
      "name": "tokensLength",
      "outputs": [
        {
          "internalType": "uint256",
          "name": "",
          "type": "uint256"
        }
      ],
      "stateMutability": "view",
      "type": "function"
    },
    {
      "inputs": [
        {
          "internalType": "address",
          "name": "newOwner",
          "type": "address"
        }
      ],
      "name": "transferOwnership",
      "outputs": [],
      "stateMutability": "nonpayable",
      "type": "function"
    }
  ],
  "bytecode": "0x60806040523480156200001157600080fd5b506040516200139a3803806200139a83398101604081905262000034916200018f565b6200003f3362000061565b6001600255805162000059906003906020840190620000db565b505062000261565b600180546001600160a01b031916905562000088816200008b602090811b6200086e17901c565b50565b600080546001600160a01b038381166001600160a01b0319831681178455604051919092169283917f8be0079c531659141344cd1fd0a4f28419497f9722a3daafe3b4186f6b6457e09190a35050565b82805482825590600052602060002090810192821562000133579160200282015b828111156200013357825182546001600160a01b0319166001600160a01b03909116178255602090920191600190910190620000fc565b506200014192915062000145565b5090565b5b8082111562000141576000815560010162000146565b634e487b7160e01b600052604160045260246000fd5b80516001600160a01b03811681146200018a57600080fd5b919050565b60006020808385031215620001a357600080fd5b82516001600160401b0380821115620001bb57600080fd5b818501915085601f830112620001d057600080fd5b815181811115620001e557620001e56200015c565b8060051b604051601f19603f830116810181811085821117156200020d576200020d6200015c565b6040529182528482019250838101850191888311156200022c57600080fd5b938501935b828510156200025557620002458562000172565b8452938501939285019262000231565b98975050505050505050565b61112980620002716000396000f3fe608060405234801561001057600080fd5b50600436106100df5760003560e01c80638da5cb5b1161008c578063d92fc67b11610066578063d92fc67b146101b1578063e30c3978146101b9578063ef6a5e69146101ca578063f2fde38b146101dd57600080fd5b80638da5cb5b1461016d5780639f451b301461017e578063b41a1aa21461019157600080fd5b806366c0bd24116100bd57806366c0bd241461013c578063715018a61461015d57806379ba50971461016557600080fd5b80633ba54bb0146100e45780634ae05c7d146100f95780635715c5b71461010c575b600080fd5b6100f76100f2366004610dee565b6101f0565b005b6100f7610107366004610eac565b610372565b61011f61011a366004610f21565b6103f7565b6040516001600160a01b0390911681526020015b60405180910390f35b61014f61014a366004610f3a565b61046e565b604051908152602001610133565b6100f76104d5565b6100f76104e9565b6000546001600160a01b031661011f565b6100f761018c366004610dee565b610563565b6101a461019f366004610dee565b61076a565b6040516101339190610f72565b60035461014f565b6001546001600160a01b031661011f565b6100f76101d8366004610dee565b61078f565b6100f76101eb366004610f3a565b6107fd565b60006101fb826108be565b9050600160008281526004602052604090205460ff16600381111561022257610222610f5c565b146102745760405162461bcd60e51b815260206004820152601560248201527f696e636f7272656374206f72646572207374617465000000000000000000000060448201526064015b60405180910390fd5b81602001516001600160a01b0316336001600160a01b031614806102a257506000546001600160a01b031633145b6103145760405162461bcd60e51b815260206004820152603e60248201527f6f726465722063616e2062652063616e63656c6c6564206279206f726465722060448201527f63726561746f72206f7220636f6e7472616374206f776e6572206f6e6c790000606482015260840161026b565b600081815260046020908152604091829020805460ff19166003179055835191516001600160801b031990921682527ffc22e6fdd88184e8d67a296586efdbe7fc841bdd51e3dcfafb84993ca3e39616910160405180910390a15050565b61037a610912565b60005b818110156103f257600383838381811061039957610399610f8c565b90506020020160208101906103ae9190610f3a565b81546001810183556000928352602090922090910180546001600160a01b0319166001600160a01b03909216919091179055806103ea81610fa2565b91505061037d565b505050565b600061040260035490565b82106104405760405162461bcd60e51b815260206004820152600d60248201526c0d2dcecc2d8d2c840d2dcc8caf609b1b604482015260640161026b565b6003828154811061045357610453610f8c565b6000918252602090912001546001600160a01b031692915050565b6000805b6003548110156104cb57826001600160a01b03166003828154811061049957610499610f8c565b6000918252602090912001546001600160a01b0316036104b95792915050565b806104c381610fa2565b915050610472565b5060001992915050565b6104dd610912565b6104e7600061096c565b565b60015433906001600160a01b031681146105575760405162461bcd60e51b815260206004820152602960248201527f4f776e61626c6532537465703a2063616c6c6572206973206e6f7420746865206044820152683732bb9037bbb732b960b91b606482015260840161026b565b6105608161096c565b50565b600061056e826108be565b6000818152600460209081526040909120549084015191925060ff16906001600160a01b031633036105ee5760405162461bcd60e51b8152602060048201526024808201527f6f726465722063726561746f722063616e6e6f7420736572766520746865206f604482015263393232b960e11b606482015260840161026b565b600181600381111561060257610602610f5c565b146106625760405162461bcd60e51b815260206004820152602a60248201527f6f726465722073686f756c64206265207265636569766564206265666f7265206044820152691cd95c9d9a5b99c81a5d60b21b606482015260840161026b565b6000828152600460209081526040909120805460ff191660021790558301516106d190336003866080015161ffff16815481106106a1576106a1610f8c565b60009182526020909120015460608701516001600160a01b03909116906bffffffffffffffffffffffff16610985565b61072533846020015160038660a0015161ffff16815481106106f5576106f5610f8c565b60009182526020909120015460408701516001600160a01b03909116906bffffffffffffffffffffffff16610985565b82516040516001600160801b031990911681527f8d157de87b602f6a0f7b0d8fb11d581427a0b910b550f8e4a1b3cc159d4fd7659060200160405180910390a1505050565b600080610776836108be565b60009081526004602052604090205460ff169392505050565b60008160c0015160018111156107a7576107a7610f5c565b146107b157600080fd5b6107ba816109af565b80516040516001600160801b031990911681527f36e22fb7d292b169105f0ad5b4f660f196e7434918107ab31c5877a5e169efee9060200160405180910390a150565b610805610912565b600180546001600160a01b0383166001600160a01b031990911681179091556108366000546001600160a01b031690565b6001600160a01b03167f38d16b8cac22d99fc7c124b9cd0de2d3fa1faef420bfe791d8c362d765e2270060405160405180910390a350565b600080546001600160a01b038381166001600160a01b0319831681178455604051919092169283917f8be0079c531659141344cd1fd0a4f28419497f9722a3daafe3b4186f6b6457e09190a35050565b805160208083015160408085015160a08601516060870151608088015160c089015194516000986108f59890979691469101610fc9565b604051602081830303815290604052805190602001209050919050565b6000546001600160a01b031633146104e75760405162461bcd60e51b815260206004820181905260248201527f4f776e61626c653a2063616c6c6572206973206e6f7420746865206f776e6572604482015260640161026b565b600180546001600160a01b03191690556105608161086e565b6001600160a01b038216156109a9576109a96001600160a01b038316858584610ad5565b50505050565b60006109ba826108be565b60008181526004602052604081205491925060ff909116908160038111156109e4576109e4610f5c565b14610a3d5760405162461bcd60e51b8152602060048201526024808201527f6f726465722073686f756c64206e6f7420626520696e69746961746564206265604482015263666f726560e01b606482015260840161026b565b60208301516001600160a01b0316336001600160a01b031614610ab85760405162461bcd60e51b815260206004820152602d60248201527f7472616e73616374696f6e20696e69746961746f722073686f756c642062652060448201526c37b93232b91031b932b0ba37b960991b606482015260840161026b565b506000908152600460205260409020805460ff1916600117905550565b604080516001600160a01b038581166024830152848116604483015260648083018590528351808403909101815260849092018352602080830180516001600160e01b03166323b872dd60e01b17905283518085019094528084527f5361666545524332303a206c6f772d6c6576656c2063616c6c206661696c6564908401526109a992879291600091610b6d918516908490610bed565b9050805160001480610b8e575080806020019051810190610b8e919061105e565b6103f25760405162461bcd60e51b815260206004820152602a60248201527f5361666545524332303a204552433230206f7065726174696f6e20646964206e6044820152691bdd081cdd58d8d9595960b21b606482015260840161026b565b6060610bfc8484600085610c04565b949350505050565b606082471015610c655760405162461bcd60e51b815260206004820152602660248201527f416464726573733a20696e73756666696369656e742062616c616e636520666f6044820152651c8818d85b1b60d21b606482015260840161026b565b600080866001600160a01b03168587604051610c8191906110a4565b60006040518083038185875af1925050503d8060008114610cbe576040519150601f19603f3d011682016040523d82523d6000602084013e610cc3565b606091505b5091509150610cd487838387610cdf565b979650505050505050565b60608315610d4e578251600003610d47576001600160a01b0385163b610d475760405162461bcd60e51b815260206004820152601d60248201527f416464726573733a2063616c6c20746f206e6f6e2d636f6e7472616374000000604482015260640161026b565b5081610bfc565b610bfc8383815115610d635781518083602001fd5b8060405162461bcd60e51b815260040161026b91906110c0565b80356001600160801b031981168114610d9557600080fd5b919050565b80356001600160a01b0381168114610d9557600080fd5b80356bffffffffffffffffffffffff81168114610d9557600080fd5b803561ffff81168114610d9557600080fd5b803560028110610d9557600080fd5b600060e08284031215610e0057600080fd5b60405160e0810181811067ffffffffffffffff82111715610e3157634e487b7160e01b600052604160045260246000fd5b604052610e3d83610d7d565b8152610e4b60208401610d9a565b6020820152610e5c60408401610db1565b6040820152610e6d60608401610db1565b6060820152610e7e60808401610dcd565b6080820152610e8f60a08401610dcd565b60a0820152610ea060c08401610ddf565b60c08201529392505050565b60008060208385031215610ebf57600080fd5b823567ffffffffffffffff80821115610ed757600080fd5b818501915085601f830112610eeb57600080fd5b813581811115610efa57600080fd5b8660208260051b8501011115610f0f57600080fd5b60209290920196919550909350505050565b600060208284031215610f3357600080fd5b5035919050565b600060208284031215610f4c57600080fd5b610f5582610d9a565b9392505050565b634e487b7160e01b600052602160045260246000fd5b6020810160048310610f8657610f86610f5c565b91905290565b634e487b7160e01b600052603260045260246000fd5b600060018201610fc257634e487b7160e01b600052601160045260246000fd5b5060010190565b6001600160801b0319891681526bffffffffffffffffffffffff19606089901b1660108201526001600160a01b031960a088811b821660248401526001600160f01b031960f089811b821660308601529188901b909216603284015285901b16603e82015260006002841061104057611040610f5c565b5060f89290921b604083015260418201526061019695505050505050565b60006020828403121561107057600080fd5b81518015158114610f5557600080fd5b60005b8381101561109b578181015183820152602001611083565b50506000910152565b600082516110b6818460208701611080565b9190910192915050565b60208152600082518060208401526110df816040850160208701611080565b601f01601f1916919091016040019291505056fea264697066735822122024ed00599e06a92a9e47f399806ae6887ded1a6b01d3030258a2b929e0dd110f64736f6c63430008120033",
  "linkReferences": {},
  "deployedLinkReferences": {}
}